{
  "contractName": "Education",
  "abi": [
    {
      "constant": true,
      "inputs": [],
      "name": "eduCount",
      "outputs": [
        {
          "name": "",
          "type": "uint256"
        }
      ],
      "payable": false,
      "stateMutability": "view",
      "type": "function",
      "signature": "0x0735f1f3"
    },
    {
      "constant": true,
      "inputs": [
        {
          "name": "",
          "type": "uint256"
        }
      ],
      "name": "eduInformations",
      "outputs": [
        {
          "name": "id",
          "type": "uint256"
        },
        {
          "name": "name",
          "type": "string"
        },
        {
          "name": "level",
          "type": "string"
        },
        {
          "name": "ca",
          "type": "string"
        },
        {
          "name": "result",
          "type": "string"
        },
        {
          "name": "content",
          "type": "string"
        },
        {
          "name": "uAddress",
          "type": "string"
        },
        {
          "name": "completed",
          "type": "bool"
        }
      ],
      "payable": false,
      "stateMutability": "view",
      "type": "function",
      "signature": "0x214f1646"
    },
    {
      "anonymous": false,
      "inputs": [
        {
          "indexed": false,
          "name": "id",
          "type": "uint256"
        },
        {
          "indexed": false,
          "name": "name",
          "type": "string"
        },
        {
          "indexed": false,
          "name": "level",
          "type": "string"
        },
        {
          "indexed": false,
          "name": "ca",
          "type": "string"
        },
        {
          "indexed": false,
          "name": "result",
          "type": "string"
        },
        {
          "indexed": false,
          "name": "content",
          "type": "string"
        },
        {
          "indexed": false,
          "name": "uAddress",
          "type": "string"
        },
        {
          "indexed": false,
          "name": "completed",
          "type": "bool"
        }
      ],
      "name": "EduInfoCreated",
      "type": "event",
      "signature": "0x1a49437068a554456c7ad50bba4cbbe8db3406de42213b21a72b57929c21958b"
    },
    {
      "anonymous": false,
      "inputs": [
        {
          "indexed": false,
          "name": "id",
          "type": "uint256"
        },
        {
          "indexed": false,
          "name": "completed",
          "type": "bool"
        }
      ],
      "name": "EduInfoCompleted",
      "type": "event",
      "signature": "0x3bb528f386a50189b15bc46f058f79ccdddc30c5f54568a50e162ccc98cf1d23"
    },
    {
      "constant": false,
      "inputs": [
        {
          "name": "_name",
          "type": "string"
        },
        {
          "name": "_level",
          "type": "string"
        },
        {
          "name": "_ca",
          "type": "string"
        },
        {
          "name": "_result",
          "type": "string"
        },
        {
          "name": "_content",
          "type": "string"
        },
        {
          "name": "_address",
          "type": "string"
        }
      ],
      "name": "createEduInfo",
      "outputs": [],
      "payable": false,
      "stateMutability": "nonpayable",
      "type": "function",
      "signature": "0xb1df3ae3"
    },
    {
      "constant": false,
      "inputs": [
        {
          "name": "_id",
          "type": "uint256"
        }
      ],
      "name": "toggleCompleted",
      "outputs": [],
      "payable": false,
      "stateMutability": "nonpayable",
      "type": "function",
      "signature": "0x455f5024"
    }
  ],
  "bytecode": "0x60806040526000805534801561001457600080fd5b50611402806100246000396000f3fe6080604052600436106100615763ffffffff7c01000000000000000000000000000000000000000000000000000000006000350416630735f1f38114610066578063214f16461461008d578063455f50241461033f578063b1df3ae31461036b575b600080fd5b34801561007257600080fd5b5061007b6106c1565b60408051918252519081900360200190f35b34801561009957600080fd5b506100b7600480360360208110156100b057600080fd5b50356106c7565b604051808981526020018060200180602001806020018060200180602001806020018815151515815260200187810387528e818151815260200191508051906020019080838360005b83811015610118578181015183820152602001610100565b50505050905090810190601f1680156101455780820380516001836020036101000a031916815260200191505b5087810386528d5181528d516020918201918f019080838360005b83811015610178578181015183820152602001610160565b50505050905090810190601f1680156101a55780820380516001836020036101000a031916815260200191505b5087810385528c5181528c516020918201918e019080838360005b838110156101d85781810151838201526020016101c0565b50505050905090810190601f1680156102055780820380516001836020036101000a031916815260200191505b5087810384528b5181528b516020918201918d019080838360005b83811015610238578181015183820152602001610220565b50505050905090810190601f1680156102655780820380516001836020036101000a031916815260200191505b5087810383528a5181528a516020918201918c019080838360005b83811015610298578181015183820152602001610280565b50505050905090810190601f1680156102c55780820380516001836020036101000a031916815260200191505b5087810382528951815289516020918201918b019080838360005b838110156102f85781810151838201526020016102e0565b50505050905090810190601f1680156103255780820380516001836020036101000a031916815260200191505b509e50505050505050505050505050505060405180910390f35b34801561034b57600080fd5b506103696004803603602081101561036257600080fd5b5035610a48565b005b34801561037757600080fd5b50610369600480360360c081101561038e57600080fd5b8101906020810181356401000000008111156103a957600080fd5b8201836020820111156103bb57600080fd5b803590602001918460018302840111640100000000831117156103dd57600080fd5b91908080601f016020809104026020016040519081016040528093929190818152602001838380828437600092019190915250929594936020810193503591505064010000000081111561043057600080fd5b82018360208201111561044257600080fd5b8035906020019184600183028401116401000000008311171561046457600080fd5b91908080601f01602080910402602001604051908101604052809392919081815260200183838082843760009201919091525092959493602081019350359150506401000000008111156104b757600080fd5b8201836020820111156104c957600080fd5b803590602001918460018302840111640100000000831117156104eb57600080fd5b91908080601f016020809104026020016040519081016040528093929190818152602001838380828437600092019190915250929594936020810193503591505064010000000081111561053e57600080fd5b82018360208201111561055057600080fd5b8035906020019184600183028401116401000000008311171561057257600080fd5b91908080601f01602080910402602001604051908101604052809392919081815260200183838082843760009201919091525092959493602081019350359150506401000000008111156105c557600080fd5b8201836020820111156105d757600080fd5b803590602001918460018302840111640100000000831117156105f957600080fd5b91908080601f016020809104026020016040519081016040528093929190818152602001838380828437600092019190915250929594936020810193503591505064010000000081111561064c57600080fd5b82018360208201111561065e57600080fd5b8035906020019184600183028401116401000000008311171561068057600080fd5b91908080601f016020809104026020016040519081016040528093929190818152602001838380828437600092019190915250929550610f17945050505050565b60005481565b600160208181526000928352604092839020805481840180548651600296821615610100026000190190911695909504601f810185900485028601850190965285855290949193929091908301828280156107635780601f1061073857610100808354040283529160200191610763565b820191906000526020600020905b81548152906001019060200180831161074657829003601f168201915b50505060028085018054604080516020601f60001961010060018716150201909416959095049283018590048502810185019091528181529596959450909250908301828280156107f55780601f106107ca576101008083540402835291602001916107f5565b820191906000526020600020905b8154815290600101906020018083116107d857829003601f168201915b5050505060038301805460408051602060026001851615610100026000190190941693909304601f81018490048402820184019092528181529495949350908301828280156108855780601f1061085a57610100808354040283529160200191610885565b820191906000526020600020905b81548152906001019060200180831161086857829003601f168201915b5050505060048301805460408051602060026001851615610100026000190190941693909304601f81018490048402820184019092528181529495949350908301828280156109155780601f106108ea57610100808354040283529160200191610915565b820191906000526020600020905b8154815290600101906020018083116108f857829003601f168201915b5050505060058301805460408051602060026001851615610100026000190190941693909304601f81018490048402820184019092528181529495949350908301828280156109a55780601f1061097a576101008083540402835291602001916109a5565b820191906000526020600020905b81548152906001019060200180831161098857829003601f168201915b5050505060068301805460408051602060026001851615610100026000190190941693909304601f8101849004840282018401909252818152949594935090830182828015610a355780601f10610a0a57610100808354040283529160200191610a35565b820191906000526020600020905b815481529060010190602001808311610a1857829003601f168201915b5050506007909301549192505060ff1688565b610a506112f3565b600082815260016020818152604092839020835161010080820186528254825282850180548751600297821615909302600019011695909504601f8101859004850282018501909652858152909491938584019391929091830182828015610af95780601f10610ace57610100808354040283529160200191610af9565b820191906000526020600020905b815481529060010190602001808311610adc57829003601f168201915b5050509183525050600282810180546040805160206001841615610100026000190190931694909404601f81018390048302850183019091528084529381019390830182828015610b8b5780601f10610b6057610100808354040283529160200191610b8b565b820191906000526020600020905b815481529060010190602001808311610b6e57829003601f168201915b505050918352505060038201805460408051602060026001851615610100026000190190941693909304601f8101849004840282018401909252818152938201939291830182828015610c1f5780601f10610bf457610100808354040283529160200191610c1f565b820191906000526020600020905b815481529060010190602001808311610c0257829003601f168201915b505050918352505060048201805460408051602060026001851615610100026000190190941693909304601f8101849004840282018401909252818152938201939291830182828015610cb35780601f10610c8857610100808354040283529160200191610cb3565b820191906000526020600020905b815481529060010190602001808311610c9657829003601f168201915b505050918352505060058201805460408051602060026001851615610100026000190190941693909304601f8101849004840282018401909252818152938201939291830182828015610d475780601f10610d1c57610100808354040283529160200191610d47565b820191906000526020600020905b815481529060010190602001808311610d2a57829003601f168201915b505050918352505060068201805460408051602060026001851615610100026000190190941693909304601f8101849004840282018401909252818152938201939291830182828015610ddb5780601f10610db057610100808354040283529160200191610ddb565b820191906000526020600020905b815481529060010190602001808311610dbe57829003601f168201915b50505091835250506007919091015460ff16151560209182015260e0820180511590526000848152600180835260409091208351815583830151805194955085949193610e2d9385019291019061133b565b5060408201518051610e4991600284019160209091019061133b565b5060608201518051610e6591600384019160209091019061133b565b5060808201518051610e8191600484019160209091019061133b565b5060a08201518051610e9d91600584019160209091019061133b565b5060c08201518051610eb991600684019160209091019061133b565b5060e091820151600791909101805460ff191691151591909117905581015160408051848152911515602083015280517f3bb528f386a50189b15bc46f058f79ccdddc30c5f54568a50e162ccc98cf1d239281900390910190a15050565b600080546001908101808355604080516101008101825282815260208082018c81528284018c9052606083018b9052608083018a905260a0830189905260c0830188905260e083018790529386528481529190942084518155915180519293610f889390850192919091019061133b565b5060408201518051610fa491600284019160209091019061133b565b5060608201518051610fc091600384019160209091019061133b565b5060808201518051610fdc91600484019160209091019061133b565b5060a08201518051610ff891600584019160209091019061133b565b5060c0820151805161101491600684019160209091019061133b565b5060e08201518160070160006101000a81548160ff0219169083151502179055509050507f1a49437068a554456c7ad50bba4cbbe8db3406de42213b21a72b57929c21958b6000548787878787876000604051808981526020018060200180602001806020018060200180602001806020018815151515815260200187810387528e818151815260200191508051906020019080838360005b838110156110c55781810151838201526020016110ad565b50505050905090810190601f1680156110f25780820380516001836020036101000a031916815260200191505b5087810386528d5181528d516020918201918f019080838360005b8381101561112557818101518382015260200161110d565b50505050905090810190601f1680156111525780820380516001836020036101000a031916815260200191505b5087810385528c5181528c516020918201918e019080838360005b8381101561118557818101518382015260200161116d565b50505050905090810190601f1680156111b25780820380516001836020036101000a031916815260200191505b5087810384528b5181528b516020918201918d019080838360005b838110156111e55781810151838201526020016111cd565b50505050905090810190601f1680156112125780820380516001836020036101000a031916815260200191505b5087810383528a5181528a516020918201918c019080838360005b8381101561124557818101518382015260200161122d565b50505050905090810190601f1680156112725780820380516001836020036101000a031916815260200191505b5087810382528951815289516020918201918b019080838360005b838110156112a557818101518382015260200161128d565b50505050905090810190601f1680156112d25780820380516001836020036101000a031916815260200191505b509e50505050505050505050505050505060405180910390a1505050505050565b61010060405190810160405280600081526020016060815260200160608152602001606081526020016060815260200160608152602001606081526020016000151581525090565b828054600181600116156101000203166002900490600052602060002090601f016020900481019282601f1061137c57805160ff19168380011785556113a9565b828001600101855582156113a9579182015b828111156113a957825182559160200191906001019061138e565b506113b59291506113b9565b5090565b6113d391905b808211156113b557600081556001016113bf565b9056fea165627a7a72305820bd97341db7749ed92b4c03ceb16c6458fe03690e875e5ca2e48bc9302c85d7fe0029",
  "source": "pragma solidity ^0.5.0;\r\n\r\ncontract Education {\r\n    uint public eduCount = 0;\r\n\r\n    struct EduInfo {\r\n        uint id;\r\n        string name;\r\n        string level;\r\n        string ca;\r\n        string result;\r\n        string content;\r\n        string uAddress;\r\n        bool completed;\r\n    }\r\n    mapping(uint => EduInfo) public eduInformations;\r\n\r\n    event EduInfoCreated(\r\n        uint id,\r\n        string name,\r\n        string level,\r\n        string ca,\r\n        string result,\r\n        string content,\r\n        string uAddress,\r\n        bool completed\r\n    );\r\n\r\n    event EduInfoCompleted(\r\n        uint id,\r\n        bool completed\r\n    );\r\n\r\n    // constructor() public {\r\n    //     createEduInfo(\"student name\",\"The first time deployment\");\r\n    // }\r\n\r\n    function createEduInfo(string memory _name, string memory _level, string memory _ca,\r\n        string memory _result,string memory _content, string memory _address) public {\r\n        eduCount ++;\r\n        eduInformations[eduCount] = EduInfo(eduCount, _name, _level, _ca, _result, _content, _address, false);\r\n        emit EduInfoCreated(eduCount, _name, _level, _ca, _result, _content, _address, false);\r\n    }\r\n\r\n    function toggleCompleted(uint _id) public {\r\n        EduInfo memory _eduInfo = eduInformations[_id];\r\n        _eduInfo.completed = !_eduInfo.completed;\r\n        eduInformations[_id] = _eduInfo;\r\n        emit EduInfoCompleted(_id, _eduInfo.completed);\r\n    \r\n    }\r\n}",
  "sourcePath": "D:/fourth_year/first_semister/design pattern/projects/bolck/Blockchain/contracts/Education.sol",
  "compiler": {
    "name": "solc",
    "version": "0.5.0+commit.1d4f565a.Emscripten.clang"
  },
  "schemaVersion": "3.0.1",
  "updatedAt": "2022-01-15T07:04:32.247Z",
  "devdoc": {
    "methods": {}
  },
  "userdoc": {
    "methods": {}
  }
}