{
  "contractName": "Education",
  "abi": [
    {
      "constant": true,
      "inputs": [],
      "name": "eduCount",
      "outputs": [
        {
          "name": "",
          "type": "uint256"
        }
      ],
      "payable": false,
      "stateMutability": "view",
      "type": "function",
      "signature": "0x0735f1f3"
    }
  ],
  "bytecode": "0x608060405260008055348015601357600080fd5b50609e806100226000396000f3fe608060405260043610603f576000357c0100000000000000000000000000000000000000000000000000000000900463ffffffff1680630735f1f3146044575b600080fd5b348015604f57600080fd5b506056606c565b6040518082815260200191505060405180910390f35b6000548156fea165627a7a7230582041fa402592cc089e0370b1ced4b9554089dd8aa50c2640d7eeb5ad9e1c8145b60029",
  "source": "pragma solidity ^0.5.0;\r\n\r\ncontract Education {\r\n    uint public eduCount = 0;\r\n}",
  "sourcePath": "E:/Education File/4th first sem/Design Pattern/Blockchain/contracts/Education.sol",
  "compiler": {
    "name": "solc",
    "version": "0.5.0+commit.1d4f565a.Emscripten.clang"
  },
  "schemaVersion": "3.0.1",
  "updatedAt": "2022-01-06T00:35:33.911Z",
  "devdoc": {
    "methods": {}
  },
  "userdoc": {
    "methods": {}
  }
}