{
  "contractName": "Education",
  "abi": [
    {
      "constant": true,
      "inputs": [],
      "name": "eduCount",
      "outputs": [
        {
          "name": "",
          "type": "uint256"
        }
      ],
      "payable": false,
      "stateMutability": "view",
      "type": "function",
      "signature": "0x0735f1f3"
    },
    {
      "constant": true,
      "inputs": [
        {
          "name": "",
          "type": "uint256"
        }
      ],
      "name": "eduInformations",
      "outputs": [
        {
          "name": "id",
          "type": "uint256"
        },
        {
          "name": "name",
          "type": "string"
        },
        {
          "name": "content",
          "type": "string"
        },
        {
          "name": "completed",
          "type": "bool"
        }
      ],
      "payable": false,
      "stateMutability": "view",
      "type": "function",
      "signature": "0x214f1646"
    },
    {
      "inputs": [],
      "payable": false,
      "stateMutability": "nonpayable",
      "type": "constructor",
      "signature": "constructor"
    },
    {
      "constant": false,
      "inputs": [
        {
          "name": "_name",
          "type": "string"
        },
        {
          "name": "_content",
          "type": "string"
        }
      ],
      "name": "createEduInfo",
      "outputs": [],
      "payable": false,
      "stateMutability": "nonpayable",
      "type": "function",
      "signature": "0x0b76cc13"
    }
  ],
  "bytecode": "0x60806040526000805534801561001457600080fd5b506100986040805190810160405280600c81526020017f73747564656e74206e616d6500000000000000000000000000000000000000008152506040805190810160405280601981526020017f5468652066697273742074696d65206465706c6f796d656e740000000000000081525061009d640100000000026401000000009004565b6101c8565b6000805460019081018083556040805160808101825282815260208082018881528284018890526060830187905293865284815291909420845181559151805192936100f19390850192919091019061012d565b506040820151805161010d91600284019160209091019061012d565b50606091909101516003909101805460ff19169115159190911790555050565b828054600181600116156101000203166002900490600052602060002090601f016020900481019282601f1061016e57805160ff191683800117855561019b565b8280016001018555821561019b579182015b8281111561019b578251825591602001919060010190610180565b506101a79291506101ab565b5090565b6101c591905b808211156101a757600081556001016101b1565b90565b610576806101d76000396000f3fe6080604052600436106100565763ffffffff7c01000000000000000000000000000000000000000000000000000000006000350416630735f1f3811461005b5780630b76cc1314610082578063214f1646146101be575b600080fd5b34801561006757600080fd5b506100706102d8565b60408051918252519081900360200190f35b34801561008e57600080fd5b506101bc600480360360408110156100a557600080fd5b8101906020810181356401000000008111156100c057600080fd5b8201836020820111156100d257600080fd5b803590602001918460018302840111640100000000831117156100f457600080fd5b91908080601f016020809104026020016040519081016040528093929190818152602001838380828437600092019190915250929594936020810193503591505064010000000081111561014757600080fd5b82018360208201111561015957600080fd5b8035906020019184600183028401116401000000008311171561017b57600080fd5b91908080601f0160208091040260200160405190810160405280939291908181526020018383808284376000920191909152509295506102de945050505050565b005b3480156101ca57600080fd5b506101e8600480360360208110156101e157600080fd5b503561036e565b60405180858152602001806020018060200184151515158152602001838103835286818151815260200191508051906020019080838360005b83811015610239578181015183820152602001610221565b50505050905090810190601f1680156102665780820380516001836020036101000a031916815260200191505b50838103825285518152855160209182019187019080838360005b83811015610299578181015183820152602001610281565b50505050905090810190601f1680156102c65780820380516001836020036101000a031916815260200191505b50965050505050505060405180910390f35b60005481565b600080546001908101808355604080516080810182528281526020808201888152828401889052606083018790529386528481529190942084518155915180519293610332939085019291909101906104af565b506040820151805161034e9160028401916020909101906104af565b50606091909101516003909101805460ff19169115159190911790555050565b600160208181526000928352604092839020805481840180548651600296821615610100026000190190911695909504601f8101859004850286018501909652858552909491939290919083018282801561040a5780601f106103df5761010080835404028352916020019161040a565b820191906000526020600020905b8154815290600101906020018083116103ed57829003601f168201915b50505060028085018054604080516020601f600019610100600187161502019094169590950492830185900485028101850190915281815295969594509092509083018282801561049c5780601f106104715761010080835404028352916020019161049c565b820191906000526020600020905b81548152906001019060200180831161047f57829003601f168201915b5050506003909301549192505060ff1684565b828054600181600116156101000203166002900490600052602060002090601f016020900481019282601f106104f057805160ff191683800117855561051d565b8280016001018555821561051d579182015b8281111561051d578251825591602001919060010190610502565b5061052992915061052d565b5090565b61054791905b808211156105295760008155600101610533565b9056fea165627a7a723058202a56a9d9f5b33d4ee6dbbe9ed06c4e097c669bcc8a30eb2dcd4385f701857b0d0029",
  "source": "pragma solidity ^0.5.0;\r\n\r\ncontract Education {\r\n    uint public eduCount = 0;\r\n\r\n    struct EduInfo {\r\n        uint id;\r\n        string name;\r\n        string content;\r\n        bool completed;\r\n    }\r\n    mapping(uint => EduInfo) public eduInformations;\r\n\r\n    constructor() public {\r\n        createEduInfo(\"student name\",\"The first time deployment\");\r\n    }\r\n\r\n    function createEduInfo(string memory _name, string memory _content) public {\r\n        eduCount ++;\r\n        eduInformations[eduCount] = EduInfo(eduCount, _name, _content, false);\r\n    }\r\n}",
  "sourcePath": "E:/Education File/4th first sem/Design Pattern/Blockchain/contracts/Education.sol",
  "compiler": {
    "name": "solc",
    "version": "0.5.0+commit.1d4f565a.Emscripten.clang"
  },
  "schemaVersion": "3.0.1",
  "updatedAt": "2022-01-06T06:29:24.036Z",
  "devdoc": {
    "methods": {}
  },
  "userdoc": {
    "methods": {}
  }
}