{
  "contractName": "Education",
  "abi": [
    {
      "constant": true,
      "inputs": [],
      "name": "eduCount",
      "outputs": [
        {
          "name": "",
          "type": "uint256"
        }
      ],
      "payable": false,
      "stateMutability": "view",
      "type": "function",
      "signature": "0x0735f1f3"
    },
    {
      "constant": true,
      "inputs": [
        {
          "name": "",
          "type": "uint256"
        }
      ],
      "name": "eduInformations",
      "outputs": [
        {
          "name": "id",
          "type": "uint256"
        },
        {
          "name": "name",
          "type": "string"
        },
        {
          "name": "content",
          "type": "string"
        },
        {
          "name": "completed",
          "type": "bool"
        }
      ],
      "payable": false,
      "stateMutability": "view",
      "type": "function",
      "signature": "0x214f1646"
    },
    {
      "inputs": [],
      "payable": false,
      "stateMutability": "nonpayable",
      "type": "constructor",
      "signature": "constructor"
    },
    {
      "anonymous": false,
      "inputs": [
        {
          "indexed": false,
          "name": "id",
          "type": "uint256"
        },
        {
          "indexed": false,
          "name": "name",
          "type": "string"
        },
        {
          "indexed": false,
          "name": "content",
          "type": "string"
        },
        {
          "indexed": false,
          "name": "completed",
          "type": "bool"
        }
      ],
      "name": "EduInfoCreated",
      "type": "event",
      "signature": "0x84d14bf21167c0a7af48297820950bf9f384b1891ef79536e724446da4bc2b6f"
    },
    {
      "anonymous": false,
      "inputs": [
        {
          "indexed": false,
          "name": "id",
          "type": "uint256"
        },
        {
          "indexed": false,
          "name": "completed",
          "type": "bool"
        }
      ],
      "name": "EduInfoCompleted",
      "type": "event",
      "signature": "0x3bb528f386a50189b15bc46f058f79ccdddc30c5f54568a50e162ccc98cf1d23"
    },
    {
      "constant": false,
      "inputs": [
        {
          "name": "_name",
          "type": "string"
        },
        {
          "name": "_content",
          "type": "string"
        }
      ],
      "name": "createEduInfo",
      "outputs": [],
      "payable": false,
      "stateMutability": "nonpayable",
      "type": "function",
      "signature": "0x0b76cc13"
    },
    {
      "constant": false,
      "inputs": [
        {
          "name": "_id",
          "type": "uint256"
        }
      ],
      "name": "toggleCompleted",
      "outputs": [],
      "payable": false,
      "stateMutability": "nonpayable",
      "type": "function",
      "signature": "0x455f5024"
    }
  ],
  "bytecode": "0x60806040526000805534801561001457600080fd5b506100986040805190810160405280600c81526020017f73747564656e74206e616d6500000000000000000000000000000000000000008152506040805190810160405280601981526020017f5468652066697273742074696d65206465706c6f796d656e740000000000000081525061009d640100000000026401000000009004565b6102e7565b6000805460019081018083556040805160808101825282815260208082018881528284018890526060830187905293865284815291909420845181559151805192936100f19390850192919091019061024c565b506040820151805161010d91600284019160209091019061024c565b5060608201518160030160006101000a81548160ff0219169083151502179055509050507f84d14bf21167c0a7af48297820950bf9f384b1891ef79536e724446da4bc2b6f6000548383600060405180858152602001806020018060200184151515158152602001838103835286818151815260200191508051906020019080838360005b838110156101aa578181015183820152602001610192565b50505050905090810190601f1680156101d75780820380516001836020036101000a031916815260200191505b50838103825285518152855160209182019187019080838360005b8381101561020a5781810151838201526020016101f2565b50505050905090810190601f1680156102375780820380516001836020036101000a031916815260200191505b50965050505050505060405180910390a15050565b828054600181600116156101000203166002900490600052602060002090601f016020900481019282601f1061028d57805160ff19168380011785556102ba565b828001600101855582156102ba579182015b828111156102ba57825182559160200191906001019061029f565b506102c69291506102ca565b5090565b6102e491905b808211156102c657600081556001016102d0565b90565b610904806102f66000396000f3fe6080604052600436106100615763ffffffff7c01000000000000000000000000000000000000000000000000000000006000350416630735f1f381146100665780630b76cc131461008d578063214f1646146101c9578063455f5024146102e3575b600080fd5b34801561007257600080fd5b5061007b61030d565b60408051918252519081900360200190f35b34801561009957600080fd5b506101c7600480360360408110156100b057600080fd5b8101906020810181356401000000008111156100cb57600080fd5b8201836020820111156100dd57600080fd5b803590602001918460018302840111640100000000831117156100ff57600080fd5b91908080601f016020809104026020016040519081016040528093929190818152602001838380828437600092019190915250929594936020810193503591505064010000000081111561015257600080fd5b82018360208201111561016457600080fd5b8035906020019184600183028401116401000000008311171561018657600080fd5b91908080601f016020809104026020016040519081016040528093929190818152602001838380828437600092019190915250929550610313945050505050565b005b3480156101d557600080fd5b506101f3600480360360208110156101ec57600080fd5b50356104c2565b60405180858152602001806020018060200184151515158152602001838103835286818151815260200191508051906020019080838360005b8381101561024457818101518382015260200161022c565b50505050905090810190601f1680156102715780820380516001836020036101000a031916815260200191505b50838103825285518152855160209182019187019080838360005b838110156102a457818101518382015260200161028c565b50505050905090810190601f1680156102d15780820380516001836020036101000a031916815260200191505b50965050505050505060405180910390f35b3480156102ef57600080fd5b506101c76004803603602081101561030657600080fd5b5035610603565b60005481565b60008054600190810180835560408051608081018252828152602080820188815282840188905260608301879052938652848152919094208451815591518051929361036793908501929190910190610812565b5060408201518051610383916002840191602090910190610812565b5060608201518160030160006101000a81548160ff0219169083151502179055509050507f84d14bf21167c0a7af48297820950bf9f384b1891ef79536e724446da4bc2b6f6000548383600060405180858152602001806020018060200184151515158152602001838103835286818151815260200191508051906020019080838360005b83811015610420578181015183820152602001610408565b50505050905090810190601f16801561044d5780820380516001836020036101000a031916815260200191505b50838103825285518152855160209182019187019080838360005b83811015610480578181015183820152602001610468565b50505050905090810190601f1680156104ad5780820380516001836020036101000a031916815260200191505b50965050505050505060405180910390a15050565b600160208181526000928352604092839020805481840180548651600296821615610100026000190190911695909504601f8101859004850286018501909652858552909491939290919083018282801561055e5780601f106105335761010080835404028352916020019161055e565b820191906000526020600020905b81548152906001019060200180831161054157829003601f168201915b50505060028085018054604080516020601f60001961010060018716150201909416959095049283018590048502810185019091528181529596959450909250908301828280156105f05780601f106105c5576101008083540402835291602001916105f0565b820191906000526020600020905b8154815290600101906020018083116105d357829003601f168201915b5050506003909301549192505060ff1684565b61060b610890565b60008281526001602081815260409283902083516080810185528154815281840180548651600296821615610100026000190190911695909504601f810185900485028601850190965285855290949193858401939092908301828280156106b45780601f10610689576101008083540402835291602001916106b4565b820191906000526020600020905b81548152906001019060200180831161069757829003601f168201915b5050509183525050600282810180546040805160206001841615610100026000190190931694909404601f810183900483028501830190915280845293810193908301828280156107465780601f1061071b57610100808354040283529160200191610746565b820191906000526020600020905b81548152906001019060200180831161072957829003601f168201915b50505091835250506003919091015460ff161515602091820152606082018051159052600084815260018083526040909120835181558383015180519495508594919361079893850192910190610812565b50604082015180516107b4916002840191602090910190610812565b50606091820151600391909101805460ff191691151591909117905581015160408051848152911515602083015280517f3bb528f386a50189b15bc46f058f79ccdddc30c5f54568a50e162ccc98cf1d239281900390910190a15050565b828054600181600116156101000203166002900490600052602060002090601f016020900481019282601f1061085357805160ff1916838001178555610880565b82800160010185558215610880579182015b82811115610880578251825591602001919060010190610865565b5061088c9291506108bb565b5090565b6080604051908101604052806000815260200160608152602001606081526020016000151581525090565b6108d591905b8082111561088c57600081556001016108c1565b9056fea165627a7a723058205790c32f14b5b20e086118d67ca092bed868578acfbe70ddde076fbfae251fad0029",
  "source": "pragma solidity ^0.5.0;\r\n\r\ncontract Education {\r\n    uint public eduCount = 0;\r\n\r\n    struct EduInfo {\r\n        uint id;\r\n        string name;\r\n        string content;\r\n        bool completed;\r\n    }\r\n    mapping(uint => EduInfo) public eduInformations;\r\n\r\n    event EduInfoCreated(\r\n        uint id,\r\n        string name,\r\n        string content,\r\n        bool completed\r\n    );\r\n\r\n    event EduInfoCompleted(\r\n        uint id,\r\n        bool completed\r\n    );\r\n\r\n    constructor() public {\r\n        createEduInfo(\"student name\",\"The first time deployment\");\r\n    }\r\n\r\n    function createEduInfo(string memory _name, string memory _content) public {\r\n        eduCount ++;\r\n        eduInformations[eduCount] = EduInfo(eduCount, _name, _content, false);\r\n        emit EduInfoCreated(eduCount, _name, _content, false);\r\n    }\r\n\r\n    function toggleCompleted(uint _id) public {\r\n        EduInfo memory _eduInfo = eduInformations[_id];\r\n        _eduInfo.completed = !_eduInfo.completed;\r\n        eduInformations[_id] = _eduInfo;\r\n        emit EduInfoCompleted(_id, _eduInfo.completed);\r\n    \r\n    }\r\n}",
  "sourcePath": "E:/Education File/4th first sem/Design Pattern/Blockchain/contracts/Education.sol",
  "compiler": {
    "name": "solc",
    "version": "0.5.0+commit.1d4f565a.Emscripten.clang"
  },
  "schemaVersion": "3.0.1",
  "updatedAt": "2022-01-06T19:06:25.392Z",
  "devdoc": {
    "methods": {}
  },
  "userdoc": {
    "methods": {}
  }
}